:020000040800F2
:1000000098070020890100089B1A00081D180008A5
:10001000991A0008890300087D1D000800000000EF
:100020000000000000000000000000009F1A00080F
:1000300029040008000000009D1A0008A11A000809
:10004000A3010008A3010008A3010008A301000800
:10005000A3010008A3010008A3010008A3010008F0
:10006000A3010008A3010008A3010008A3010008E0
:10007000A3010008A3010008A3010008A3010008D0
:10008000A3010008A3010008A3010008A3010008C0
:10009000A3010008A3010008A3010008A3010008B0
:1000A000A3010008A3010008A3010008A3010008A0
:1000B000A3010008A3010008A3010008A301000890
:1000C000A3010008A3010008A3010008A301000880
:1000D000A3010008A3010008A3010008A301000870
:1000E000A3010008A3010008A301000800F002F822
:1000F00000F03AF80AA090E8000C82448344AAF188
:100100000107DA4501D100F02FF8AFF2090EBAE885
:100110000F0013F0010F18BFFB1A43F0010318473B
:10012000F81D0000181E0000103A24BF78C878C1DE
:10013000FAD8520724BF30C830C144BF04680C60ED
:10014000704700000023002400250026103A28BF35
:1001500078C1FBD8520728BF30C148BF0B60704739
:100160001FB51FBD10B510BD00F058F81146FFF7C0
:10017000F7FF01F069FE00F076F803B4FFF7F2FF35
:1001800003BC00F07DF8000009488047094800479B
:10019000FEE7FEE7FEE7FEE7FEE7FEE7FEE7FEE737
:1001A000FEE7FEE704480549054A064B7047000094
:1001B0000D1B0008ED0000089801002098070020A2
:1001C00098030020980300204FF0000200B513466A
:1001D00094469646203922BFA0E80C50A0E80C5067
:1001E000B1F12001BFF4F7AF090728BFA0E80C5018
:1001F00048BF0CC05DF804EB890028BF40F8042B11
:1002000008BF704748BF20F8022B11F0804F18BF7D
:1002100000F8012B7047704770477047754600F033
:100220002BF8AE4605006946534620F00700854688
:1002300018B020B5FFF7B6FFBDE820404FF000062C
:100240004FF000074FF000084FF0000B21F00701BE
:10025000AC46ACE8C009ACE8C009ACE8C009ACE801
:10026000C0098D46704710B50446AFF300802046A4
:10027000BDE81040FFF781BF0048704738010020FB
:1002800001491820ABBEFEE726000200704770B59A
:10029000054600F029FB0A21284600F087FA284687
:1002A00000F0AEF984B2284600F07EFB204670BD17
:1002B00070B5044600688168C943C90717D18168D1
:1002C00021F00101816000F083FC05460AE000BFD7
:1002D00000F07EFC401B022804D920688068C043DF
:1002E000C00706D020688068C043C007F0D0002057
:1002F00070BDA06A40F01000A062E06A40F001000A
:10030000E062012070BD0000F8B5002604460096AA
:1003100000688168C943C9072DD0816841F0010197
:100320008160164816490068B0FBF1F000E0401EFD
:1003300000900028FBD100F04BFC054616E000BF02
:1003400000F046FC401B022810D920688068C0439A
:10035000C0070BD0A06A40F01000A062E06A40F035
:100360000100E06284F824600120F8BD2068806804
:10037000C043C007E4D10020F8BD000018000020F1
:1003800040420F0001607047FEE770B50D4604461D
:100390008188006800F012FC217A814203D020722B
:1003A00000F016FCE06000F013FCE168401A0F2832
:1003B00028D3207AA071E179884223D000BB01269E
:1003C000012D02D0022D0FD01AE001F0CFFC207CCD
:1003D000042803D200F10100207401E000D126744A
:1003E000207C01F0B7FC0BE0607C10B1012802D04A
:1003F00003E0667401E000206074607C01F0B0FCF2
:10040000A079E071617C207C2A46BDE8704001F053
:10041000C7BC01608280002181710122C271027219
:10042000C16002744174704770470000F8B5002540
:100430000446009590F82400012808D0012084F893
:1004400024002046FFF734FF060002D053E00220CC
:10045000F8BDA06A20F4885040F00200A06202209B
:1004600000F046FC26490968B1FBF0F0400000E0CE
:10047000401E00900028FBD12046FFF745FF206872
:10048000816841F00801816000F0A2FB074608E0A6
:1004900000F09EFBC01B0A2803D920688068000773
:1004A00015D4206880680007F2D42068816841F084
:1004B0000401816000F08CFB074612E000F088FB2D
:1004C000C01B0A280DD920688068400709D5A06A9A
:1004D00020F0020040F01000A06284F824500120B7
:1004E000F8BD206880684007E8D4A06A20F00200C8
:1004F00040F00100A06284F824503046F8BD0000AE
:1005000018000020F8B50024009490F82420254617
:10051000012A12D0012280F824204A681F23072ACA
:100520000DD20668776B521E02EB820293409F4306
:100530000B6893401F43776319E00220F8BD0668FB
:100540000D2A0AD2376BD21F02EB820293409F43DF
:100550000B6893401F43376309E0F76A0D3A02EBDB
:10056000820293409F430B6893401F43F7620A68DF
:10057000072306680A2A0AD3F7680A3A02EB4202FE
:1005800093409F438B6893401F43F76008E03769AF
:1005900002EB420293409F438B6893401F433761B5
:1005A0000A68102A01D0112A20D1124B02689A42FF
:1005B00017D193681B0219D4936843F40003936026
:1005C0000968102912D10C490C4A0968B1FBF2F1F3
:1005D00001EB8101490000E0491E00910029FBD197
:1005E00004E0816A41F020018162012480F82450F6
:1005F0002046F8BD002401401800002040420F00B2
:100600000068C06C704700002DE9F0414FF0000712
:1006100004003D467ED0A06A002628B9E66284F830
:100620002460204600F07EF82046FFF741FEA16AD4
:10063000C90600D420B1A06A40F01000A06269E0B1
:10064000A16A21F4885141F00201A1626268E16966
:10065000237B0A4347EA43010A43A1684FF48077AA
:10066000B94209D0012907D05FF0000194F814C005
:10067000BCF1010F02D00AE03946F7E7F3B1A36AF3
:1006800043F02003A362E36A43F00103E3622368BB
:10069000D3F804C02CF4694C4CEA010CC3F804C034
:1006A00021688B68DFF870C003EA0C0313438B608A
:1006B000A168B9420BD0012909D00CE0DFF85CC079
:1006C000A3690CEB43330B4343F40061DFE7218A5A
:1006D0000D05A5F580152168CB6A23F470032B4323
:1006E000CB62216889680E4B1940914208D1E662BD
:1006F000A16A21F0020141F00101A162BDE8F0818F
:10070000A06A20F0020040F01000A062E06A40F011
:100710000100E0620120F1E7FDF7E1FF00E0FFFFEB
:10072000FE0E1FFF10B586B00021009101910291CD
:1007300003911A4C03681A4903221A48A34211D1A3
:100740008B6943F400738B618B6903F4007304932A
:100750008B6943F004038B61896901F00401049102
:10076000022113E0104CA34215D18B6943F480633E
:100770008B618B6903F4806304938B6943F00403FA
:100780008B61896901F0040104910421CDE9001213
:10079000694600F023F906B010BD000000240140B6
:1007A0000010024000080140002801402DE9F843F4
:1007B00000270D460446009700F00AFA804620689C
:1007C0008168C90508D5A06A40F02000A06284F8BD
:1007D00024700120BDE8F8834168C90503D4C06ACC
:1007E00010F4700F2AD0022000F082FA3B49096809
:1007F000B1FBF0F62068036939490B424FEA610109
:100800004FEAA1121FD1C3684FEA611C13EA0C0F13
:1008100019D103690B4225D1C068104222D114209E
:1008200023E0681C0AD02DB100F0D2F9A0EB08003B
:10083000A84203D920680068800725D52068006891
:100840008007EED52DE003690B4202D1C168114249
:1008500006D0026923490A4206D1C068084203D182
:10086000542002E0292000E0FC204643009816E0D6
:10087000681C11D02DB100F0ABF9A0EB0800A84224
:100880000AD90098B04207D2A06A40F00400A062E2
:1008900084F8247003209DE70098401C0090B0422B
:1008A000E6D321686FF012000860A06A40F400707F
:1008B000A06220688068C0F3424007280CD1207BEA
:1008C00050B9A06A20F48070A062A06AC00403D46A
:1008D000A06A40F00100A06200207BE71800002021
:1008E000244992244992240070B5044690F82400CB
:1008F00001280DD0012084F824002046FFF704FDD4
:1009000002004FF0000005D084F82400104670BDAE
:10091000022070BDA16A40F20123994341F4807125
:10092000A1621F4D23681F49AB4218D10E6816F40F
:10093000702F14D0A66A46F48016A6620E6876055B
:1009400005D5A66A26F4005646F48056A662A66A25
:10095000F6040AD5E66A26F00606E66206E0A66A0E
:1009600026F48016A6625E68E9E7E06284F8240057
:100970006FF00200186020688368C3F34243072BBE
:1009800005D1A84208D1096811F4702F04D08168FC
:1009900041F480118160B9E7816841F4A001F9E771
:1009A000002801400424014010B5044690F82400BA
:1009B000012807D0012084F824002046FFF778FCA6
:1009C00010B107E0022010BDA16A21F4885141F066
:1009D0000101A162002184F8241010BD2DE9F84F17
:1009E000DFF8B891002409F1040A0AF1040B234648
:1009F0000F270BF1040EC9E00125A5402A40AA42A9
:100A00007DD1674ED1F804C0ACEB0608B44532D0B6
:100A100014DCBCF1030F3AD009DCBCF1000F2AD082
:100A2000BCF1010F1CD0BCF1020F31D11DE0BCF1B3
:100A3000110F17D0BCF1120F2AD119E0B8F5881F99
:100A400019D006DCB8F5803F15D0B8F5801F1FD14E
:100A500011E0B8F5001F0ED0B8F5041F18D10AE058
:100A6000CB6815E0CB681B1D12E0CB6808330FE0A4
:100A7000CB680C330CE08B682BB1012B4FF00803D3
:100A800003D0456104E0042302E0056100E0002397
:100A9000FF2A01D8064601E000F104064FEA84056A
:100AA00001D9A5F12005D6F8008007FA05FC28EA4F
:100AB0000C0803FA05F548EA0508C6F800804D68F9
:100AC000ED0062D5374DAE6946F00106AE61AD6905
:100AD00024F0030605F001050095334D06EB050CE7
:100AE000DCF80850A607360F07FA06F825EA0805CD
:100AF000DFF8B880404503D14FF0000817E044E02C
:100B0000DFF8AC80404502D14FF001080FE0DFF87C
:100B1000A480404502D14FF0020808E0DFF8988039
:100B2000404502D14FF0030801E04FF0040808FAF5
:100B300006F848EA0508CCF808804D68D9F8006046
:100B4000ED034D4601D5164300E096432E604D68F7
:100B5000DAF80060AD03554601D5164300E0964330
:100B60002E604D68DBF80060ED025D4601D516434E
:100B700000E096432E604D68DEF80060AD027546D9
:100B800001D5164300E096432E60641C0D682A468A
:100B9000E5407FF431AFBDE8F88F0000000401406C
:100BA0000000111000100240000001400008014048
:100BB000000C014000100140001401408068084012
:100BC00000D0012070470AB1016170470904FBE7BA
:100BD00001488068704700000C00002002488168CE
:100BE00002781144816070470C000020074810B55E
:100BF000016841F010010160032000F067F80F2048
:100C000000F006F800F024F8002010BD002002409B
:100C100070B50D4D04464FF47A712878B1FBF0F0B1
:100C20000A490968B1FBF0F000F0A8FB48B9102CA4
:100C300007D200222146501E00F028F800206C60E8
:100C400070BD012070BD00000C00002018000020C5
:100C50000C4808B5816941F001018161816901F0A9
:100C600001010091C16941F08051C161C06900F08A
:100C7000805000900448416821F0E06141F000712B
:100C8000416008BD0010024000000140F0B40E4B6E
:100C90001B680C46C3F30223C3F10705042D00D9DA
:100CA0000425191D072901D2002300E0DB1E0126BF
:100CB00006FA05F1491E214099409E40761E1640D5
:100CC0003143F0BC01F05BB80CED00E0064900F0E8
:100CD000070208684FF6FF03184040EA0220034A63
:100CE00010430860704700000CED00E00000FA05BA
:100CF00010B529A401461DCC86B08DE81D002AA0A0
:100D00002A4C006804900020012923D002293AD0FF
:100D100010291DD161682268D20119D5C1F383421F
:100D2000C9031DF8020009D5616804AAC1F3404156
:100D3000515C1F4AB2FBF1F1484301E01D494843B1
:100D40006168490204D440005FF00301B0FBF1F098
:100D500006B010BD226AC2F30121012903D1920716
:100D600001D5C803F4E7022905D1626A920702D5CA
:100D700049F64040ECE70329EAD121688903E7D529
:100D80004FF22440E4E700F023F96168C1F38131B8
:100D9000491C4900DAE700000203040506070809B8
:100DA0000A0B0C0D0E0F1010010200000010024083
:100DB00000127A0000093D002DE9F843054600784D
:100DC000354CC00754D0E0690026C00008D4E06963
:100DD00040F08050E061E069012600F08050009012
:100DE0002E480168C90512D40168804641F480711B
:100DF0000160FFF7EDFE074605E000BFFFF7E8FEE4
:100E0000C01B642823D8D8F80000C005F6D5206A96
:100E100010F4407021D0A98801F4407181421CD0A7
:100E2000206A1F49012220F440700A6000220A60F3
:100E30002062C00711D0FFF7CBFE074641F2883889
:100E400008E000BFFFF7C4FEC11B414502D90320E3
:100E5000BDE8F883206A8007F4D5206A696820F429
:100E60004070084320621EB1E06920F08050E061CC
:100E70002878800705D56068A96820F440400843B9
:100E800060602878C00605D56068E96820F48000B5
:100E9000084360600020DBE7001002400070004063
:100EA000400442422DE9F0470F46050061D0434E11
:100EB000306800F00700B84209D2306820F007001F
:100EC00038433060306800F00700B84251D12868DC
:100ED0003B4C810712D5400703D5606840F4E060C1
:100EE00060602878000703D5606840F46050606057
:100EF0006068A96820F0F000084360602878C007A7
:100F000028D06868012810D02168022810D08907ED
:100F100000292EDA616821F0030101436160FFF7C7
:100F200057FE804641F288390DE021688903EFE7DA
:100F30008901EDE7FFF74CFEA0EB0801494502D916
:100F40000320BDE8F0876068696800F00C00B0EB32
:100F5000810FEFD1306800F00700B8420BD930683C
:100F600020F0070038433060306800F00700B842D6
:100F700001D00120E5E72878400705D56068E968D9
:100F800020F4E060084360602878000706D56068B8
:100F9000296920F4605040EAC100606000F028F840
:100FA0006168084AC1F30311515CC84006490860F2
:100FB00006480068FFF72CFE0020C2E70020024030
:100FC00000100240001F0008180000201000002040
:100FD0000448054900684968044AC1F3C221515CCC
:100FE000C84070471800002000100240101F000881
:100FF00012A185B00FC98DE80F0014A0144A006833
:1010000004905168134801F00C03042B10D0082BF6
:101010000ED1C1F38343C9031DF803000AD55168FB
:1010200004AAC1F34041515C0A4A5043B0FBF1F0BD
:1010300005B0704708494843FAE700000203040579
:10104000060708090A0B0C0D0E0F10100102000014
:101050000010024000127A0000093D002DE9F84F0F
:10106000040070D02078C04DC00749D06868C0F334
:101070008100012807D06868C0F38100022809D1E7
:101080006868C00306D52868800339D560680028E1
:10109000E7D035E06068B0F5803F0BD010B1B0F517
:1010A000A02F11D0286820F480302860286820F410
:1010B000802002E0286840F480302860606890B1A9
:1010C000FFF786FD06460AE0286840F48020286085
:1010D000F0E700BFFFF77CFD801B642873D8286809
:1010E0008003F7D50CE0FFF773FD064605E000BF6F
:1010F000FFF76EFD801B6428F0D828688003F7D4C2
:1011000020789A4E80074FF001094FF0000839D53A
:10111000686810F00C0F07D06868C0F381000228DF
:1011200009D16868C00306D42868800714D52069EF
:10113000012808D110E02069B0B1C6F80090FFF78F
:1011400047FD074605E00AE1FFF742FDC01B022804
:10115000C4D828688007F7D52868616920F0F800AE
:1011600040EAC10028600DE0C6F80080FFF730FDBE
:10117000074604E0FFF72CFDC01B022823D828688F
:101180008007F7D4207800072CD57948A169D9B118
:10119000C0F80090FFF71CFD074604E0FFF718FDBC
:1011A000C01B02280FD8686A8007F7D571484FF432
:1011B000FA510068B0FBF1F0009000BF0098411EAA
:1011C0000091FAD20EE080E0C0F80080FFF700FD49
:1011D000074604E0FFF7FCFCC01B022875D8686ACC
:1011E0008007F7D42078400760D5E8690027C00061
:1011F00008D4E86940F08050E861E869012700F010
:10120000805000905C480168C90513D4016883468A
:1012100041F480710160FFF7DBFC824606E000BF0D
:10122000FFF7D6FCA0EB0A0064284ED8DBF80000DC
:10123000C005F5D5E06801280AD008B1052813D00B
:10124000286A20F001002862286A20F0040002E0E9
:10125000286A40F001002862E06841F2883B98B1BA
:10126000FFF7B6FC82460BE0286A40F004002862D3
:10127000EEE700BFFFF7ACFCA0EB0A0159455AD8D6
:10128000286A8007F6D50CE0FFF7A2FC824605E04D
:10129000FFF79EFCA0EB0A0159454CD8286A80074D
:1012A000F6D41FB1E86920F08050E861E06988B3A6
:1012B0006968C1F38101022944D00228C6F8608020
:1012C00004D0FFF785FC044638E034E0FFF780FCEB
:1012D000074604E0FFF77CFCC01B02282BD82868D7
:1012E0008001F7D4206AB0F5803F05D16868A16815
:1012F00020F4003008436860D4E9080108436968B5
:1013000021F4741108436860C6F86090FFF760FC30
:10131000044606E025E000BFFFF75AFC001B022848
:1013200009D828688001F7D51BE000BFFFF750FC03
:10133000001B022802D90320BDE8F88F286880012D
:10134000F4D40EE00128F7D06868226A00F48031F6
:10135000914204D1616A00F47010884201D00120EA
:10136000EAE70020E8E700000010024000004242E7
:1013700080044242180000200070004010B5401E5A
:10138000B0F1807F01D3012010BD4FF0E0246061F7
:101390000F21601700F0F3FC0020A06107202061FE
:1013A000002010BD10B590F83C20012A22D0012267
:1013B00080F83C20CA688C6822F4407222434C6852
:1013C00022F4806222430C6822F4006222430C69FA
:1013D00022F4805222434C6922F400522243C9690C
:1013E000002322F480420A4301684A6480F83C30BA
:1013F000002010BD022010BD70B590F83C20012ADD
:1014000026D0012480F83C40022280F83D20036869
:101410005A689D6822F070060A6832435A600D4B84
:1014200002689A4208D0B2F1804F05D00A4B9A4226
:1014300002D00A4B9A4204D1496825F0800319432F
:10144000916080F83D40002180F83C10084670BD56
:10145000022070BD002C0140000400400008004044
:1014600010B5040003D094F83D0010B107E001204E
:1014700010BD002084F83C00204600F01FF8022038
:1014800084F83D00211D206800F042FB012084F813
:10149000460084F83E0084F83F0084F8400084F859
:1014A000410084F8420084F8430084F8440084F842
:1014B000450084F83D00002010BD000008B50C4A2E
:1014C00001680C48914207D1816941F40061816152
:1014D000806900F4006009E0B1F1804F07D1C16973
:1014E00041F00101C161C06900F00100009008BD38
:1014F000002C01400010024070B5044690F83C00FA
:10150000012817D0012584F83C50022084F83D00C2
:101510002068826822F0770222F47F4282600868A5
:10152000502830D00DDC20284DD005DC98B3102891
:101530003BD148E0022070BD302844D0402834D14F
:1015400039E0602828D0702806D0B0F5805F2CD014
:10155000B0F5005F29D10AE0CB68D1E9012120680C
:1015600000F019FB2068816841F0770109E0CB6841
:10157000D1E90121206800F00EFB2068816841F468
:101580008041816011E0CA684968206800F0B8FBBA
:101590005021206807E016E0CA684968206800F01A
:1015A000C0FB6021206800F000FB84F83D50002063
:1015B00084F83C0070BDCA684968206800F0A0FB50
:1015C00040212068EFE7226801461046EBE7000063
:1015D00000B585B0002100910191029103911A4B51
:1015E00002681A4802219A4211D1826942F004022B
:1015F00082618069039100F004000490C801CDE984
:10160000000169461248FFF7E9F905B000BDB2F1E3
:10161000804FFAD1826942F00802826180690391A9
:1016200000F0080004900820CDE90001694609484F
:10163000FFF7D4F90848416821F4407141F0E061B6
:1016400041F480714160E0E7002C0140001002404D
:1016500000080140000C01400000014070B5044644
:1016600090F83C000D4601280AD0012084F83C0087
:1016700042B1042A18D0082A2AD00C2A4DD139E0C8
:10168000022070BD206800F099FA2068816941F05D
:10169000080181612068816921F00401816120686D
:1016A00081692A69114311E0206800F0AFFA2068CF
:1016B000816941F4006181612068816921F4806160
:1016C0008161206881692A6941EA0221816124E0FF
:1016D000206800F0C7FA2068C16941F00801C161C3
:1016E0002068C16921F00401C1612068C1692A69CB
:1016F000114311E0206800F0E1FA2068C16941F46B
:101700000061C1612068C16921F48061C161206804
:10171000C1692A6941EA0221C161002084F83C00C4
:1017200070BD10B5040003D094F83D0010B107E07F
:10173000012010BD002084F83C00204600F01EF877
:10174000022084F83D00211D206800F0E1F901200D
:1017500084F8460084F83E0084F83F0084F8400096
:1017600084F8410084F8420084F8430084F844007F
:1017700084F8450084F83D00002010BD704700004B
:1017800010B50446022249B104290ED0082913D00D
:1017900094F84100012816D0012010BD94F83E00B5
:1017A0000128F9D184F83E200FE094F83F00012889
:1017B000F2D184F83F2008E094F840000128EBD1F2
:1017C00084F8402001E084F841200122206800F0E4
:1017D000D5F90F492068884203D1426C42F4004297
:1017E00042642068884208D0B0F1804F05D0094992
:1017F000884202D00849884204D1816801F007017B
:10180000062903D0016841F001010160002010BDEC
:10181000002C01400004004000080040FEE70000EA
:101820003EB5002410480094019402940D49846050
:10183000016004730475012505614FF46021446063
:10184000C161FEF7E1FE08B172B6FEE70095CDE991
:10185000015469460448FEF755FE002801D072B6CF
:10186000FEE73EBD00240140200000203EB50024DC
:1018700011480094019402940E498460016004733D
:101880000475012505614FF460214460C161FEF7D4
:10189000BBFE08B172B6FEE70220CDE9000569463D
:1018A00002940548FEF72EFE002801D072B6FEE72E
:1018B0003EBD0000002801405000002070B586B0F9
:1018C00000241B480094019402940394816941F020
:1018D00020018161816901F020010491816941F059
:1018E00004018161816901F004010491816941F081
:1018F0000801816180690F4E00F008000490002209
:1019000030213046FFF75FF9092001258DE83100CD
:1019100069463046FFF762F83020CDE90005022025
:10192000CDE9024069463046FFF758F806B070BD71
:10193000001002400008014010B596B000240F943A
:1019400010941194129413941C2108A81494FEF777
:101950003BFC20216846FEF737FC284826490160F9
:101960004821C0E9011440F2E731C0E903144461A1
:101970008461FFF775FD08B172B6FEE74FF4805041
:101980000F900FA91D48FFF7B7FD08B172B6FEE72B
:101990001A48FFF7C6FE08B172B6FEE7139413A902
:1019A00016481494FFF728FD08B172B6FEE76020D0
:1019B000CDE908040A940B940C940D94002208A914
:1019C0000E480E94FFF74AFE08B172B6FEE7009487
:1019D0004FF40050CDE90440029401940394694609
:1019E00006480794FFF7DEFC08B172B6FEE703482D
:1019F000FFF7EEFD16B010BD002C01408000002066
:101A000010B58EB000240794089409940A940B949E
:101A10001C2168460C94FEF7D7FB1E484FF080410E
:101A200001604721C0E9011440F2E731C0E9031425
:101A30008461FFF715FD08B172B6FEE74FF48050E0
:101A4000079007A91348FFF757FD08B172B6FEE7E4
:101A50001048FFF766FE08B172B6FEE70B940BA9BB
:101A60000C480C94FFF7C8FC08B172B6FEE7602082
:101A7000CDE9000402940422694606480494FFF765
:101A8000EDFD08B172B6FEE70248FFF7A1FD0EB00A
:101A900010BD0000C8000020FEE7FEE77047704759
:101AA000FFF79CB830B593B028216846FEF78CFB51
:101AB00014210AA8FEF788FB002401200F940225B8
:101AC000049000951020119405901094129407949E
:101AD0006846FFF7C3FA08B172B6FEE70F20CDE9FA
:101AE0000A040C940D9400210AA80E94FFF7DAF969
:101AF00008B172B6FEE70FA80F951194FFF75CF9D5
:101B0000002801D072B6FEE713B030BD7047000068
:101B1000F0B50268164B174C174D4FF080479842AE
:101B200005D0B84203D0A04201D0A84203D122F090
:101B300070064A683243984205D0B84203D0A042AA
:101B400001D0A84203D122F44074CA6822434C69F0
:101B500022F08002224302608A68C2620A688262BE
:101B6000984201D10969016301214161F0BD000082
:101B7000002C0140000400400008004010B501F0B6
:101B80001F030121046A99408C430462016A9A4050
:101B90001143016210BD10B5846842EA032224F4A7
:101BA0007F440A432243826010BD826822F07002A3
:101BB0000A4342F0070181607047000030B5026AB5
:101BC00022F001020262026A4368846924F073050C
:101BD0000C682C4322F002058A682A430A4DA84269
:101BE0000BD122F00805CA6823F440732A434D69DB
:101BF00022F004021D438B692B43436084614968D2
:101C00004163026230BD0000002C014030B5026A21
:101C100022F010020262026A436884690D6824F4AB
:101C2000E64444EA05248D6822F0200242EA0512C7
:101C30000B4DA8420ED1CD6822F0800242EA051277
:101C40004D6923F4406343EA85038D6922F0400225
:101C500043EA85034360846149688163026230BD61
:101C6000002C014030B5026A22F480720262036ADD
:101C70004268C46923F4007324F073050C682C4394
:101C80008D6843EA05230C4DA8420ED1CD6823F49C
:101C9000006343EA05234D6922F4405242EA0512EB
:101CA0008D6923F4806342EA05124260C461496889
:101CB000C163036230BD0000002C014030B5026AF0
:101CC00022F480520262046A4268C3690D6823F4F8
:101CD000E64343EA05238D6824F4005444EA0534BE
:101CE000064DA84204D14D6922F4804242EA851291
:101CF0004260C36149680164046230BD002C014048
:101D000010B5036A046A24F001040462846924F0B3
:101D1000F00444EA021423F00A020A4384610262D6
:101D200010BD10B5036A23F0100303628369046ACF
:101D300023F4704343EA023224F0A00343EA011182
:101D40008261016210BD00000149C8707047000047
:101D5000000000200149487070470000000000208A
:101D60000149887070470000000000200248017897
:101D7000491C01707047000000000020FEE70907C1
:101D8000090E002804DB00F1E02080F80014704701
:101D900000F00F0000F1E02080F8141D70470000F3
:101DA00038B5244C012A16D0022A13D1012935D086
:101DB00000290FD12048FEF76AFA64210023009120
:101DC00040F6FF724FEA030100F082F8C0B22070C3
:101DD000FFF7BAFF38BD0428FCD801281AD0022822
:101DE0000FD0032816D00428F4D10022134910463E
:101DF00000F078F8124920780422BDE8384000F05D
:101E000071B800220D49207800F06CF804220C49CA
:101E10000020F2E7002209491046F5E70948FEF7DD
:101E200036FA00210091642340F6FA724FF496616D
:101E3000CAE700001C0000202000002080000020D5
:101E4000C800002050000020FEF7D0FEFFF72AFE59
:101E5000FFF734FDFFF7E4FCFFF708FDFFF76CFD2B
:101E6000FFF7CEFD1648FEF7E1FA15480021603075
:101E7000FFF786FC12480421A830FFF781FC114CC3
:101E80000F4801222146F030FEF7C3FA082221460E
:101E90000D48FEF7BEFA0A490C48FEF773FA0849E6
:101EA0000A483031001DFEF76DFA02210648FEF7A0
:101EB0006CFA054801211438FEF767FAF5E70000CF
:101EC0002000002000080140240100200400002020
:101ED00010B5401A029CE41A6043511A90FBF1F0CD
:101EE000184410BD0968CB6A43436420B3FBF0F08B
:101EF00080B21AB1042A00D18863704748637047E2
:101F000000000000000000000102030406070809A9
:101F10000000000001020304381F00080000002038
:101F20002000000028010008581F000820000020A1
:101F300078070000440100080000000000000000D5
:101F40000000000001000000100000000000000080
:081F50000024F4000000000071
:04000005080000ED02
:00000001FF
